20240518-14:06:11.785 : 8=FIX.4.4|9=74|35=A|34=1|49=CLIENT1|52=20240518-14:06:11.698|56=SIMPLE|98=0|108=30|141=Y|10=242|
20240518-14:06:11.834 : 8=FIX.4.4|9=68|35=A|34=1|49=SIMPLE|52=20240518-14:06:11.832|56=CLIENT1|98=0|108=30|10=190|
20240518-14:06:12.555 : 8=FIX.4.4|9=124|35=D|34=2|49=CLIENT1|52=20240518-14:06:12.555|56=SIMPLE|11=2|38=90595|40=1|44=639.67|54=2|55=VALE3|60=20240518-11:06:12.555|10=193|
20240518-14:06:12.560 : 8=FIX.4.4|9=101|35=j|34=2|49=SIMPLE|52=20240518-14:06:12.559|56=CLIENT1|45=2|58=Unsupported Message Type|372=D|380=3|10=248|
20240518-14:06:13.571 : 8=FIX.4.4|9=124|35=D|34=3|49=CLIENT1|52=20240518-14:06:13.571|56=SIMPLE|11=3|38=14890|40=1|44=641.99|54=1|55=PETR4|60=20240518-11:06:13.571|10=204|
20240518-14:06:13.573 : 8=FIX.4.4|9=101|35=j|34=3|49=SIMPLE|52=20240518-14:06:13.572|56=CLIENT1|45=3|58=Unsupported Message Type|372=D|380=3|10=246|
20240518-14:06:14.588 : 8=FIX.4.4|9=124|35=D|34=4|49=CLIENT1|52=20240518-14:06:14.586|56=SIMPLE|11=4|38=56715|40=1|44=291.16|54=2|55=VIIA4|60=20240518-11:06:14.586|10=195|
20240518-14:06:14.590 : 8=FIX.4.4|9=101|35=j|34=4|49=SIMPLE|52=20240518-14:06:14.589|56=CLIENT1|45=4|58=Unsupported Message Type|372=D|380=3|10=001|
20240518-14:06:15.603 : 8=FIX.4.4|9=122|35=D|34=5|49=CLIENT1|52=20240518-14:06:15.601|56=SIMPLE|11=5|38=61034|40=1|44=3.89|54=2|55=PETR4|60=20240518-11:06:15.601|10=086|
20240518-14:06:15.604 : 8=FIX.4.4|9=101|35=j|34=5|49=SIMPLE|52=20240518-14:06:15.603|56=CLIENT1|45=5|58=Unsupported Message Type|372=D|380=3|10=247|
20240518-14:06:16.617 : 8=FIX.4.4|9=124|35=D|34=6|49=CLIENT1|52=20240518-14:06:16.615|56=SIMPLE|11=6|38=78334|40=1|44=401.74|54=2|55=VALE3|60=20240518-11:06:16.615|10=185|
20240518-14:06:16.619 : 8=FIX.4.4|9=101|35=j|34=6|49=SIMPLE|52=20240518-14:06:16.618|56=CLIENT1|45=6|58=Unsupported Message Type|372=D|380=3|10=000|
20240518-14:06:17.632 : 8=FIX.4.4|9=124|35=D|34=7|49=CLIENT1|52=20240518-14:06:17.630|56=SIMPLE|11=7|38=55992|40=1|44=217.99|54=2|55=PETR4|60=20240518-11:06:17.630|10=220|
20240518-14:06:17.634 : 8=FIX.4.4|9=101|35=j|34=7|49=SIMPLE|52=20240518-14:06:17.633|56=CLIENT1|45=7|58=Unsupported Message Type|372=D|380=3|10=000|
20240518-14:06:18.647 : 8=FIX.4.4|9=124|35=D|34=8|49=CLIENT1|52=20240518-14:06:18.645|56=SIMPLE|11=8|38=51660|40=1|44=714.23|54=1|55=PETR4|60=20240518-11:06:18.645|10=212|
20240518-14:06:18.649 : 8=FIX.4.4|9=101|35=j|34=8|49=SIMPLE|52=20240518-14:06:18.648|56=CLIENT1|45=8|58=Unsupported Message Type|372=D|380=3|10=009|
20240518-14:06:19.661 : 8=FIX.4.4|9=124|35=D|34=9|49=CLIENT1|52=20240518-14:06:19.660|56=SIMPLE|11=9|38=89380|40=1|44=858.93|54=2|55=VIIA4|60=20240518-11:06:19.660|10=219|
20240518-14:06:19.661 : 8=FIX.4.4|9=101|35=j|34=9|49=SIMPLE|52=20240518-14:06:19.661|56=CLIENT1|45=9|58=Unsupported Message Type|372=D|380=3|10=007|
20240518-14:06:20.676 : 8=FIX.4.4|9=126|35=D|34=10|49=CLIENT1|52=20240518-14:06:20.675|56=SIMPLE|11=10|38=53318|40=1|44=995.15|54=1|55=VIIA4|60=20240518-11:06:20.675|10=028|
20240518-14:06:20.677 : 8=FIX.4.4|9=103|35=j|34=10|49=SIMPLE|52=20240518-14:06:20.677|56=CLIENT1|45=10|58=Unsupported Message Type|372=D|380=3|10=088|
20240518-14:06:21.692 : 8=FIX.4.4|9=125|35=D|34=11|49=CLIENT1|52=20240518-14:06:21.691|56=SIMPLE|11=11|38=60938|40=1|44=523.2|54=1|55=PETR4|60=20240518-11:06:21.691|10=242|
20240518-14:06:21.693 : 8=FIX.4.4|9=103|35=j|34=11|49=SIMPLE|52=20240518-14:06:21.693|56=CLIENT1|45=11|58=Unsupported Message Type|372=D|380=3|10=089|
20240518-14:06:22.708 : 8=FIX.4.4|9=126|35=D|34=12|49=CLIENT1|52=20240518-14:06:22.706|56=SIMPLE|11=12|38=76877|40=1|44=852.38|54=2|55=PETR4|60=20240518-11:06:22.706|10=057|
20240518-14:06:22.710 : 8=FIX.4.4|9=103|35=j|34=12|49=SIMPLE|52=20240518-14:06:22.709|56=CLIENT1|45=12|58=Unsupported Message Type|372=D|380=3|10=090|
20240518-14:06:23.721 : 8=FIX.4.4|9=126|35=D|34=13|49=CLIENT1|52=20240518-14:06:23.721|56=SIMPLE|11=13|38=49186|40=1|44=478.93|54=1|55=VALE3|60=20240518-11:06:23.720|10=031|
20240518-14:06:23.722 : 8=FIX.4.4|9=103|35=j|34=13|49=SIMPLE|52=20240518-14:06:23.722|56=CLIENT1|45=13|58=Unsupported Message Type|372=D|380=3|10=088|
20240518-14:06:24.736 : 8=FIX.4.4|9=126|35=D|34=14|49=CLIENT1|52=20240518-14:06:24.735|56=SIMPLE|11=14|38=13394|40=1|44=442.86|54=1|55=PETR4|60=20240518-11:06:24.735|10=051|
20240518-14:06:24.736 : 8=FIX.4.4|9=103|35=j|34=14|49=SIMPLE|52=20240518-14:06:24.736|56=CLIENT1|45=14|58=Unsupported Message Type|372=D|380=3|10=096|
20240518-14:06:25.737 : 8=FIX.4.4|9=125|35=D|34=15|49=CLIENT1|52=20240518-14:06:25.736|56=SIMPLE|11=15|38=54327|40=1|44=977.3|54=2|55=VIIA4|60=20240518-11:06:25.736|10=250|
20240518-14:06:25.737 : 8=FIX.4.4|9=103|35=j|34=15|49=SIMPLE|52=20240518-14:06:25.737|56=CLIENT1|45=15|58=Unsupported Message Type|372=D|380=3|10=100|
20240518-14:06:26.755 : 8=FIX.4.4|9=126|35=D|34=16|49=CLIENT1|52=20240518-14:06:26.753|56=SIMPLE|11=16|38=37161|40=1|44=391.46|54=2|55=VIIA4|60=20240518-11:06:26.752|10=038|
20240518-14:06:26.756 : 8=FIX.4.4|9=103|35=j|34=16|49=SIMPLE|52=20240518-14:06:26.755|56=CLIENT1|45=16|58=Unsupported Message Type|372=D|380=3|10=103|
20240518-14:06:27.770 : 8=FIX.4.4|9=125|35=D|34=17|49=CLIENT1|52=20240518-14:06:27.768|56=SIMPLE|11=17|38=64580|40=1|44=915.1|54=2|55=VALE3|60=20240518-11:06:27.768|10=002|
20240518-14:06:27.772 : 8=FIX.4.4|9=103|35=j|34=17|49=SIMPLE|52=20240518-14:06:27.771|56=CLIENT1|45=17|58=Unsupported Message Type|372=D|380=3|10=104|
20240518-23:32:19.784 : 8=FIX.4.4|9=74|35=A|34=1|49=CLIENT1|52=20240518-23:32:19.756|56=SIMPLE|98=0|108=30|141=Y|10=244|
20240518-23:32:19.807 : 8=FIX.4.4|9=68|35=A|34=1|49=SIMPLE|52=20240518-23:32:19.805|56=CLIENT1|98=0|108=30|10=197|
20240518-23:32:20.762 : 8=FIX.4.4|9=133|35=D|34=2|49=CLIENT1|52=20240518-23:32:20.760|56=SIMPLE|11=2|21=1|38=50361|40=1|44=70.19|54=2|55=VIIA4|59=0|60=20240518-20:32:20.760|10=030|
20240518-23:32:20.768 : 8=FIX.4.4|9=101|35=j|34=2|49=SIMPLE|52=20240518-23:32:20.768|56=CLIENT1|45=2|58=Unsupported Message Type|372=D|380=3|10=248|
20240518-23:32:21.776 : 8=FIX.4.4|9=134|35=D|34=3|49=CLIENT1|52=20240518-23:32:21.776|56=SIMPLE|11=3|21=1|38=21116|40=1|44=154.33|54=1|55=VALE3|59=0|60=20240518-20:32:21.776|10=089|
20240518-23:32:21.777 : 8=FIX.4.4|9=101|35=j|34=3|49=SIMPLE|52=20240518-23:32:21.777|56=CLIENT1|45=3|58=Unsupported Message Type|372=D|380=3|10=251|
20240518-23:32:22.778 : 8=FIX.4.4|9=134|35=D|34=4|49=CLIENT1|52=20240518-23:32:22.777|56=SIMPLE|11=4|21=1|38=16564|40=1|44=227.13|54=2|55=VALE3|59=0|60=20240518-20:32:22.777|10=106|
20240518-23:32:22.779 : 8=FIX.4.4|9=101|35=j|34=4|49=SIMPLE|52=20240518-23:32:22.779|56=CLIENT1|45=4|58=Unsupported Message Type|372=D|380=3|10=000|
20240518-23:32:23.793 : 8=FIX.4.4|9=134|35=D|34=5|49=CLIENT1|52=20240518-23:32:23.792|56=SIMPLE|11=5|21=1|38=63722|40=1|44=953.92|54=2|55=VIIA4|59=0|60=20240518-20:32:23.792|10=117|
20240518-23:32:23.794 : 8=FIX.4.4|9=101|35=j|34=5|49=SIMPLE|52=20240518-23:32:23.794|56=CLIENT1|45=5|58=Unsupported Message Type|372=D|380=3|10=000|
20240518-23:36:39.537 : 8=FIX.4.4|9=74|35=A|34=1|49=CLIENT1|52=20240518-23:36:39.503|56=SIMPLE|98=0|108=30|141=Y|10=240|
20240518-23:36:39.564 : 8=FIX.4.4|9=68|35=A|34=1|49=SIMPLE|52=20240518-23:36:39.562|56=CLIENT1|98=0|108=30|10=203|
20240518-23:36:40.510 : 8=FIX.4.4|9=133|35=D|34=2|49=CLIENT1|52=20240518-23:36:40.509|56=SIMPLE|11=2|21=1|38=23241|40=1|44=83.94|54=1|55=VALE3|59=0|60=20240518-20:36:40.509|10=045|
20240518-23:36:41.526 : 8=FIX.4.4|9=132|35=D|34=3|49=CLIENT1|52=20240518-23:36:41.525|56=SIMPLE|11=3|21=1|38=35243|40=1|44=1.99|54=2|55=VIIA4|59=0|60=20240518-20:36:41.525|10=255|
20240518-23:36:42.542 : 8=FIX.4.4|9=134|35=D|34=4|49=CLIENT1|52=20240518-23:36:42.541|56=SIMPLE|11=4|21=1|38=29085|40=1|44=639.24|54=1|55=VALE3|59=0|60=20240518-20:36:42.541|10=106|
20240518-23:36:43.560 : 8=FIX.4.4|9=133|35=D|34=5|49=CLIENT1|52=20240518-23:36:43.557|56=SIMPLE|11=5|21=1|38=53620|40=1|44=201.7|54=2|55=PETR4|59=0|60=20240518-20:36:43.557|10=074|
20240518-23:36:44.574 : 8=FIX.4.4|9=134|35=D|34=6|49=CLIENT1|52=20240518-23:36:44.572|56=SIMPLE|11=6|21=1|38=99193|40=1|44=634.25|54=2|55=VIIA4|59=0|60=20240518-20:36:44.572|10=128|
20240518-23:36:45.588 : 8=FIX.4.4|9=134|35=D|34=7|49=CLIENT1|52=20240518-23:36:45.587|56=SIMPLE|11=7|21=1|38=30213|40=1|44=786.11|54=2|55=PETR4|59=0|60=20240518-20:36:45.587|10=143|
20240518-23:36:46.604 : 8=FIX.4.4|9=134|35=D|34=8|49=CLIENT1|52=20240518-23:36:46.603|56=SIMPLE|11=8|21=1|38=25451|40=1|44=579.99|54=2|55=VALE3|59=0|60=20240518-20:36:46.603|10=129|
20240518-23:36:47.618 : 8=FIX.4.4|9=134|35=D|34=9|49=CLIENT1|52=20240518-23:36:47.617|56=SIMPLE|11=9|21=1|38=82023|40=1|44=812.09|54=2|55=PETR4|59=0|60=20240518-20:36:47.617|10=142|
20240518-23:36:48.634 : 8=FIX.4.4|9=136|35=D|34=10|49=CLIENT1|52=20240518-23:36:48.633|56=SIMPLE|11=10|21=1|38=57352|40=1|44=977.05|54=2|55=PETR4|59=0|60=20240518-20:36:48.633|10=237|
20240518-23:36:49.650 : 8=FIX.4.4|9=136|35=D|34=11|49=CLIENT1|52=20240518-23:36:49.648|56=SIMPLE|11=11|21=1|38=84368|40=1|44=881.85|54=1|55=VIIA4|59=0|60=20240518-20:36:49.648|10=243|
20240518-23:36:50.664 : 8=FIX.4.4|9=136|35=D|34=12|49=CLIENT1|52=20240518-23:36:50.663|56=SIMPLE|11=12|21=1|38=61116|40=1|44=507.64|54=1|55=VALE3|59=0|60=20240518-20:36:50.663|10=199|
20240518-23:36:51.677 : 8=FIX.4.4|9=136|35=D|34=13|49=CLIENT1|52=20240518-23:36:51.677|56=SIMPLE|11=13|21=1|38=87166|40=1|44=609.32|54=1|55=VIIA4|59=0|60=20240518-20:36:51.677|10=226|
20240518-23:36:52.693 : 8=FIX.4.4|9=136|35=D|34=14|49=CLIENT1|52=20240518-23:36:52.692|56=SIMPLE|11=14|21=1|38=11296|40=1|44=927.66|54=1|55=VIIA4|59=0|60=20240518-20:36:52.692|10=225|
20240518-23:36:53.709 : 8=FIX.4.4|9=136|35=D|34=15|49=CLIENT1|52=20240518-23:36:53.708|56=SIMPLE|11=15|21=1|38=78073|40=1|44=401.37|54=2|55=VIIA4|59=0|60=20240518-20:36:53.708|10=217|
20240518-23:36:54.723 : 8=FIX.4.4|9=136|35=D|34=16|49=CLIENT1|52=20240518-23:36:54.722|56=SIMPLE|11=16|21=1|38=77963|40=1|44=249.91|54=2|55=VALE3|59=0|60=20240518-20:36:54.722|10=228|
20240518-23:36:55.738 : 8=FIX.4.4|9=136|35=D|34=17|49=CLIENT1|52=20240518-23:36:55.738|56=SIMPLE|11=17|21=1|38=69790|40=1|44=753.28|54=1|55=VALE3|59=0|60=20240518-20:36:55.738|10=244|
20240519-00:28:05.129 : 8=FIX.4.4|9=74|35=A|34=1|49=CLIENT1|52=20240519-00:28:05.079|56=SIMPLE|98=0|108=30|141=Y|10=238|
20240519-00:28:05.152 : 8=FIX.4.4|9=68|35=A|34=1|49=SIMPLE|52=20240519-00:28:05.151|56=CLIENT1|98=0|108=30|10=187|
20240519-00:28:06.087 : 8=FIX.4.4|9=133|35=D|34=2|49=CLIENT1|52=20240519-00:28:06.086|56=SIMPLE|11=2|21=1|38=92099|40=1|44=770.3|54=1|55=PETR4|59=0|60=20240518-21:28:06.086|10=078|
20240519-00:28:06.092 : 8=FIX.4.4|9=149|35=9|34=2|49=SIMPLE|52=20240519-00:28:06.091|56=CLIENT1|11=2|37=|39=8|41=11=|58=Order rejected: User exceeded permitted exposure limit.|102=99|434=1|10=013|
20240519-00:28:06.094 : 8=FIX.4.4|9=113|35=3|34=3|49=CLIENT1|52=20240519-00:28:06.094|56=SIMPLE|45=2|58=Tag specified without a value|371=37|372=9|373=4|10=135|
20240519-00:28:07.102 : 8=FIX.4.4|9=134|35=D|34=4|49=CLIENT1|52=20240519-00:28:07.101|56=SIMPLE|11=3|21=1|38=65858|40=1|44=976.29|54=1|55=PETR4|59=0|60=20240518-21:28:07.101|10=127|
20240519-00:28:07.102 : 8=FIX.4.4|9=149|35=9|34=3|49=SIMPLE|52=20240519-00:28:07.102|56=CLIENT1|11=3|37=|39=8|41=11=|58=Order rejected: User exceeded permitted exposure limit.|102=99|434=1|10=009|
20240519-00:28:07.103 : 8=FIX.4.4|9=113|35=3|34=5|49=CLIENT1|52=20240519-00:28:07.103|56=SIMPLE|45=3|58=Tag specified without a value|371=37|372=9|373=4|10=130|
20240519-00:28:08.118 : 8=FIX.4.4|9=134|35=D|34=6|49=CLIENT1|52=20240519-00:28:08.117|56=SIMPLE|11=4|21=1|38=72174|40=1|44=344.29|54=1|55=VIIA4|59=0|60=20240518-21:28:08.116|10=105|
20240519-00:28:08.118 : 8=FIX.4.4|9=149|35=9|34=4|49=SIMPLE|52=20240519-00:28:08.118|56=CLIENT1|11=4|37=|39=8|41=11=|58=Order rejected: User exceeded permitted exposure limit.|102=99|434=1|10=019|
20240519-00:28:08.119 : 8=FIX.4.4|9=113|35=3|34=7|49=CLIENT1|52=20240519-00:28:08.119|56=SIMPLE|45=4|58=Tag specified without a value|371=37|372=9|373=4|10=141|
20240519-00:28:09.132 : 8=FIX.4.4|9=134|35=D|34=8|49=CLIENT1|52=20240519-00:28:09.132|56=SIMPLE|11=5|21=1|38=56068|40=1|44=655.98|54=1|55=PETR4|59=0|60=20240518-21:28:09.131|10=137|
20240519-00:28:09.133 : 8=FIX.4.4|9=149|35=9|34=5|49=SIMPLE|52=20240519-00:28:09.133|56=CLIENT1|11=5|37=|39=8|41=11=|58=Order rejected: User exceeded permitted exposure limit.|102=99|434=1|10=019|
20240519-00:28:09.134 : 8=FIX.4.4|9=113|35=3|34=9|49=CLIENT1|52=20240519-00:28:09.134|56=SIMPLE|45=5|58=Tag specified without a value|371=37|372=9|373=4|10=142|
20240519-00:28:10.147 : 8=FIX.4.4|9=134|35=D|34=10|49=CLIENT1|52=20240519-00:28:10.147|56=SIMPLE|11=6|21=1|38=9168|40=1|44=723.53|54=2|55=PETR4|59=0|60=20240518-21:28:10.147|10=115|
20240519-00:28:10.148 : 8=FIX.4.4|9=149|35=9|34=6|49=SIMPLE|52=20240519-00:28:10.148|56=CLIENT1|11=6|37=|39=8|41=11=|58=Order rejected: User exceeded permitted exposure limit.|102=99|434=1|10=019|
20240519-00:28:10.148 : 8=FIX.4.4|9=114|35=3|34=11|49=CLIENT1|52=20240519-00:28:10.148|56=SIMPLE|45=6|58=Tag specified without a value|371=37|372=9|373=4|10=182|
20240519-00:28:11.162 : 8=FIX.4.4|9=134|35=D|34=12|49=CLIENT1|52=20240519-00:28:11.162|56=SIMPLE|11=7|21=1|38=20342|40=1|44=612.7|54=2|55=PETR4|59=0|60=20240518-21:28:11.162|10=097|
20240519-00:28:11.163 : 8=FIX.4.4|9=149|35=9|34=7|49=SIMPLE|52=20240519-00:28:11.163|56=CLIENT1|11=7|37=|39=8|41=11=|58=Order rejected: User exceeded permitted exposure limit.|102=99|434=1|10=019|
20240519-00:28:11.163 : 8=FIX.4.4|9=114|35=3|34=13|49=CLIENT1|52=20240519-00:28:11.163|56=SIMPLE|45=7|58=Tag specified without a value|371=37|372=9|373=4|10=183|
20240519-00:28:12.177 : 8=FIX.4.4|9=134|35=D|34=14|49=CLIENT1|52=20240519-00:28:12.176|56=SIMPLE|11=8|21=1|38=2431|40=1|44=951.98|54=2|55=PETR4|59=0|60=20240518-21:28:12.176|10=127|
20240519-00:28:12.177 : 8=FIX.4.4|9=149|35=9|34=8|49=SIMPLE|52=20240519-00:28:12.177|56=CLIENT1|11=8|37=|39=8|41=11=|58=Order rejected: User exceeded permitted exposure limit.|102=99|434=1|10=027|
20240519-00:28:12.178 : 8=FIX.4.4|9=114|35=3|34=15|49=CLIENT1|52=20240519-00:28:12.178|56=SIMPLE|45=8|58=Tag specified without a value|371=37|372=9|373=4|10=193|
20240519-00:28:13.193 : 8=FIX.4.4|9=135|35=D|34=16|49=CLIENT1|52=20240519-00:28:13.192|56=SIMPLE|11=9|21=1|38=77900|40=1|44=452.63|54=2|55=VIIA4|59=0|60=20240518-21:28:13.192|10=160|
20240519-00:28:13.193 : 8=FIX.4.4|9=149|35=9|34=9|49=SIMPLE|52=20240519-00:28:13.193|56=CLIENT1|11=9|37=|39=8|41=11=|58=Order rejected: User exceeded permitted exposure limit.|102=99|434=1|10=028|
20240519-00:28:13.194 : 8=FIX.4.4|9=114|35=3|34=17|49=CLIENT1|52=20240519-00:28:13.194|56=SIMPLE|45=9|58=Tag specified without a value|371=37|372=9|373=4|10=195|
20240519-00:28:14.206 : 8=FIX.4.4|9=136|35=D|34=18|49=CLIENT1|52=20240519-00:28:14.206|56=SIMPLE|11=10|21=1|38=51573|40=1|44=508.26|54=1|55=VALE3|59=0|60=20240518-21:28:14.206|10=193|
20240519-00:28:14.207 : 8=FIX.4.4|9=151|35=9|34=10|49=SIMPLE|52=20240519-00:28:14.206|56=CLIENT1|11=10|37=|39=8|41=11=|58=Order rejected: User exceeded permitted exposure limit.|102=99|434=1|10=097|
20240519-00:28:14.207 : 8=FIX.4.4|9=115|35=3|34=19|49=CLIENT1|52=20240519-00:28:14.207|56=SIMPLE|45=10|58=Tag specified without a value|371=37|372=9|373=4|10=234|
20240519-00:28:15.207 : 8=FIX.4.4|9=136|35=D|34=20|49=CLIENT1|52=20240519-00:28:15.207|56=SIMPLE|11=11|21=1|38=86750|40=1|44=106.38|54=2|55=VALE3|59=0|60=20240518-21:28:15.207|10=194|
20240519-00:28:15.208 : 8=FIX.4.4|9=151|35=9|34=11|49=SIMPLE|52=20240519-00:28:15.208|56=CLIENT1|11=11|37=|39=8|41=11=|58=Order rejected: User exceeded permitted exposure limit.|102=99|434=1|10=102|
20240519-00:28:15.209 : 8=FIX.4.4|9=115|35=3|34=21|49=CLIENT1|52=20240519-00:28:15.208|56=SIMPLE|45=11|58=Tag specified without a value|371=37|372=9|373=4|10=230|
20240519-00:28:16.223 : 8=FIX.4.4|9=136|35=D|34=22|49=CLIENT1|52=20240519-00:28:16.222|56=SIMPLE|11=12|21=1|38=47036|40=1|44=416.14|54=1|55=VIIA4|59=0|60=20240518-21:28:16.222|10=186|
20240519-00:28:16.223 : 8=FIX.4.4|9=151|35=9|34=12|49=SIMPLE|52=20240519-00:28:16.223|56=CLIENT1|11=12|37=|39=8|41=11=|58=Order rejected: User exceeded permitted exposure limit.|102=99|434=1|10=102|
20240519-00:28:16.223 : 8=FIX.4.4|9=115|35=3|34=23|49=CLIENT1|52=20240519-00:28:16.223|56=SIMPLE|45=12|58=Tag specified without a value|371=37|372=9|373=4|10=231|
20240519-00:28:17.237 : 8=FIX.4.4|9=136|35=D|34=24|49=CLIENT1|52=20240519-00:28:17.237|56=SIMPLE|11=13|21=1|38=61518|40=1|44=568.69|54=1|55=VALE3|59=0|60=20240518-21:28:17.237|10=220|
20240519-00:28:17.238 : 8=FIX.4.4|9=151|35=9|34=13|49=SIMPLE|52=20240519-00:28:17.238|56=CLIENT1|11=13|37=|39=8|41=11=|58=Order rejected: User exceeded permitted exposure limit.|102=99|434=1|10=111|
20240519-00:28:17.239 : 8=FIX.4.4|9=115|35=3|34=25|49=CLIENT1|52=20240519-00:28:17.238|56=SIMPLE|45=13|58=Tag specified without a value|371=37|372=9|373=4|10=241|
20240519-00:28:18.252 : 8=FIX.4.4|9=136|35=D|34=26|49=CLIENT1|52=20240519-00:28:18.251|56=SIMPLE|11=14|21=1|38=99354|40=1|44=121.99|54=1|55=PETR4|59=0|60=20240518-21:28:18.251|10=234|
20240519-00:28:18.252 : 8=FIX.4.4|9=151|35=9|34=14|49=SIMPLE|52=20240519-00:28:18.252|56=CLIENT1|11=14|37=|39=8|41=11=|58=Order rejected: User exceeded permitted exposure limit.|102=99|434=1|10=110|
20240519-00:28:18.253 : 8=FIX.4.4|9=115|35=3|34=27|49=CLIENT1|52=20240519-00:28:18.253|56=SIMPLE|45=14|58=Tag specified without a value|371=37|372=9|373=4|10=242|
20240519-00:28:19.267 : 8=FIX.4.4|9=135|35=D|34=28|49=CLIENT1|52=20240519-00:28:19.266|56=SIMPLE|11=15|21=1|38=11722|40=1|44=70.44|54=2|55=VALE3|59=0|60=20240518-21:28:19.266|10=159|
20240519-00:28:19.281 : 8=FIX.4.4|9=110|35=8|34=15|49=SIMPLE|52=20240519-00:28:19.280|56=CLIENT1|6=0|14=11722|17=0|37=|39=2|54=2|55=VALE3|150=2|151=0|10=127|
20240519-00:28:19.282 : 8=FIX.4.4|9=115|35=3|34=29|49=CLIENT1|52=20240519-00:28:19.281|56=SIMPLE|45=15|58=Tag specified without a value|371=37|372=8|373=4|10=246|
20240519-00:28:20.283 : 8=FIX.4.4|9=136|35=D|34=30|49=CLIENT1|52=20240519-00:28:20.282|56=SIMPLE|11=16|21=1|38=67101|40=1|44=313.91|54=1|55=VALE3|59=0|60=20240518-21:28:20.282|10=185|
20240519-00:28:20.285 : 8=FIX.4.4|9=153|35=9|34=16|49=SIMPLE|52=20240519-00:28:20.284|56=CLIENT1|11=16|37=|39=8|41=11=15|58=Order rejected: User exceeded permitted exposure limit.|102=99|434=1|10=216|
20240519-00:28:20.287 : 8=FIX.4.4|9=115|35=3|34=31|49=CLIENT1|52=20240519-00:28:20.286|56=SIMPLE|45=16|58=Tag specified without a value|371=37|372=9|373=4|10=238|
20240519-00:28:21.299 : 8=FIX.4.4|9=136|35=D|34=32|49=CLIENT1|52=20240519-00:28:21.298|56=SIMPLE|11=17|21=1|38=42796|40=1|44=855.86|54=2|55=VIIA4|59=0|60=20240518-21:28:21.298|10=235|
20240519-00:28:21.301 : 8=FIX.4.4|9=153|35=9|34=17|49=SIMPLE|52=20240519-00:28:21.300|56=CLIENT1|11=17|37=|39=8|41=11=15|58=Order rejected: User exceeded permitted exposure limit.|102=99|434=1|10=208|
20240519-00:28:21.302 : 8=FIX.4.4|9=115|35=3|34=33|49=CLIENT1|52=20240519-00:28:21.302|56=SIMPLE|45=17|58=Tag specified without a value|371=37|372=9|373=4|10=231|
20240519-00:28:22.313 : 8=FIX.4.4|9=136|35=D|34=34|49=CLIENT1|52=20240519-00:28:22.312|56=SIMPLE|11=18|21=1|38=79432|40=1|44=451.11|54=2|55=VIIA4|59=0|60=20240518-21:28:22.312|10=191|
20240519-00:28:22.313 : 8=FIX.4.4|9=153|35=9|34=18|49=SIMPLE|52=20240519-00:28:22.313|56=CLIENT1|11=18|37=|39=8|41=11=15|58=Order rejected: User exceeded permitted exposure limit.|102=99|434=1|10=215|
20240519-00:28:22.314 : 8=FIX.4.4|9=115|35=3|34=35|49=CLIENT1|52=20240519-00:28:22.313|56=SIMPLE|45=18|58=Tag specified without a value|371=37|372=9|373=4|10=237|
20240519-00:28:23.330 : 8=FIX.4.4|9=136|35=D|34=36|49=CLIENT1|52=20240519-00:28:23.328|56=SIMPLE|11=19|21=1|38=75943|40=1|44=597.31|54=1|55=VALE3|59=0|60=20240518-21:28:23.328|10=223|
20240519-00:28:23.332 : 8=FIX.4.4|9=153|35=9|34=19|49=SIMPLE|52=20240519-00:28:23.331|56=CLIENT1|11=19|37=|39=8|41=11=15|58=Order rejected: User exceeded permitted exposure limit.|102=99|434=1|10=218|
20240519-00:28:23.335 : 8=FIX.4.4|9=115|35=3|34=37|49=CLIENT1|52=20240519-00:28:23.334|56=SIMPLE|45=19|58=Tag specified without a value|371=37|372=9|373=4|10=244|
20240519-00:28:24.343 : 8=FIX.4.4|9=134|35=D|34=38|49=CLIENT1|52=20240519-00:28:24.342|56=SIMPLE|11=20|21=1|38=28607|40=1|44=9.58|54=2|55=VIIA4|59=0|60=20240518-21:28:24.342|10=108|
20240519-00:28:24.343 : 8=FIX.4.4|9=110|35=8|34=20|49=SIMPLE|52=20240519-00:28:24.343|56=CLIENT1|6=0|14=28607|17=0|37=|39=2|54=2|55=VIIA4|150=2|151=0|10=131|
20240519-00:28:24.344 : 8=FIX.4.4|9=115|35=3|34=39|49=CLIENT1|52=20240519-00:28:24.343|56=SIMPLE|45=20|58=Tag specified without a value|371=37|372=8|373=4|10=238|
20240519-00:28:25.358 : 8=FIX.4.4|9=136|35=D|34=40|49=CLIENT1|52=20240519-00:28:25.357|56=SIMPLE|11=21|21=1|38=34934|40=1|44=960.86|54=1|55=VALE3|59=0|60=20240518-21:28:25.356|10=217|
20240519-00:28:25.360 : 8=FIX.4.4|9=153|35=9|34=21|49=SIMPLE|52=20240519-00:28:25.360|56=CLIENT1|11=21|37=|39=8|41=11=20|58=Order rejected: User exceeded permitted exposure limit.|102=99|434=1|10=204|
20240519-00:28:25.363 : 8=FIX.4.4|9=115|35=3|34=41|49=CLIENT1|52=20240519-00:28:25.362|56=SIMPLE|45=21|58=Tag specified without a value|371=37|372=9|373=4|10=235|
20240519-00:28:26.373 : 8=FIX.4.4|9=136|35=D|34=42|49=CLIENT1|52=20240519-00:28:26.372|56=SIMPLE|11=22|21=1|38=61219|40=1|44=562.57|54=2|55=VALE3|59=0|60=20240518-21:28:26.372|10=210|
20240519-00:28:26.374 : 8=FIX.4.4|9=153|35=9|34=22|49=SIMPLE|52=20240519-00:28:26.374|56=CLIENT1|11=22|37=|39=8|41=11=20|58=Order rejected: User exceeded permitted exposure limit.|102=99|434=1|10=212|
20240519-00:28:26.375 : 8=FIX.4.4|9=115|35=3|34=43|49=CLIENT1|52=20240519-00:28:26.375|56=SIMPLE|45=22|58=Tag specified without a value|371=37|372=9|373=4|10=243|
20240519-00:28:27.387 : 8=FIX.4.4|9=136|35=D|34=44|49=CLIENT1|52=20240519-00:28:27.386|56=SIMPLE|11=23|21=1|38=78506|40=1|44=436.23|54=2|55=PETR4|59=0|60=20240518-21:28:27.386|10=245|
20240519-00:28:27.387 : 8=FIX.4.4|9=153|35=9|34=23|49=SIMPLE|52=20240519-00:28:27.387|56=CLIENT1|11=23|37=|39=8|41=11=20|58=Order rejected: User exceeded permitted exposure limit.|102=99|434=1|10=219|
20240519-00:28:27.388 : 8=FIX.4.4|9=115|35=3|34=45|49=CLIENT1|52=20240519-00:28:27.388|56=SIMPLE|45=23|58=Tag specified without a value|371=37|372=9|373=4|10=251|
20240519-00:28:28.404 : 8=FIX.4.4|9=136|35=D|34=46|49=CLIENT1|52=20240519-00:28:28.403|56=SIMPLE|11=24|21=1|38=58332|40=1|44=828.01|54=2|55=VALE3|59=0|60=20240518-21:28:28.403|10=206|
20240519-00:28:28.405 : 8=FIX.4.4|9=153|35=9|34=24|49=SIMPLE|52=20240519-00:28:28.405|56=CLIENT1|11=24|37=|39=8|41=11=20|58=Order rejected: User exceeded permitted exposure limit.|102=99|434=1|10=213|
20240519-00:28:28.407 : 8=FIX.4.4|9=115|35=3|34=47|49=CLIENT1|52=20240519-00:28:28.407|56=SIMPLE|45=24|58=Tag specified without a value|371=37|372=9|373=4|10=247|
20240519-00:28:29.418 : 8=FIX.4.4|9=136|35=D|34=48|49=CLIENT1|52=20240519-00:28:29.416|56=SIMPLE|11=25|21=1|38=53386|40=1|44=364.06|54=1|55=PETR4|59=0|60=20240518-21:28:29.416|10=242|
20240519-00:28:29.420 : 8=FIX.4.4|9=153|35=9|34=25|49=SIMPLE|52=20240519-00:28:29.419|56=CLIENT1|11=25|37=|39=8|41=11=20|58=Order rejected: User exceeded permitted exposure limit.|102=99|434=1|10=221|
20240519-00:28:29.422 : 8=FIX.4.4|9=115|35=3|34=49|49=CLIENT1|52=20240519-00:28:29.422|56=SIMPLE|45=25|58=Tag specified without a value|371=37|372=9|373=4|10=248|
20240519-00:28:30.433 : 8=FIX.4.4|9=135|35=D|34=50|49=CLIENT1|52=20240519-00:28:30.432|56=SIMPLE|11=26|21=1|38=19894|40=1|44=304.2|54=2|55=PETR4|59=0|60=20240518-21:28:30.432|10=164|
20240519-00:28:30.435 : 8=FIX.4.4|9=153|35=9|34=26|49=SIMPLE|52=20240519-00:28:30.434|56=CLIENT1|11=26|37=|39=8|41=11=20|58=Order rejected: User exceeded permitted exposure limit.|102=99|434=1|10=212|
20240519-00:28:30.437 : 8=FIX.4.4|9=115|35=3|34=51|49=CLIENT1|52=20240519-00:28:30.436|56=SIMPLE|45=26|58=Tag specified without a value|371=37|372=9|373=4|10=239|
20240519-00:28:31.448 : 8=FIX.4.4|9=136|35=D|34=52|49=CLIENT1|52=20240519-00:28:31.446|56=SIMPLE|11=27|21=1|38=37831|40=1|44=723.88|54=1|55=VALE3|59=0|60=20240518-21:28:31.446|10=217|
20240519-00:28:31.449 : 8=FIX.4.4|9=153|35=9|34=27|49=SIMPLE|52=20240519-00:28:31.449|56=CLIENT1|11=27|37=|39=8|41=11=20|58=Order rejected: User exceeded permitted exposure limit.|102=99|434=1|10=221|
20240519-00:28:31.451 : 8=FIX.4.4|9=115|35=3|34=53|49=CLIENT1|52=20240519-00:28:31.450|56=SIMPLE|45=27|58=Tag specified without a value|371=37|372=9|373=4|10=239|
20240519-00:28:32.463 : 8=FIX.4.4|9=136|35=D|34=54|49=CLIENT1|52=20240519-00:28:32.461|56=SIMPLE|11=28|21=1|38=25398|40=1|44=486.14|54=2|55=PETR4|59=0|60=20240518-21:28:32.461|10=237|
20240519-00:28:32.464 : 8=FIX.4.4|9=153|35=9|34=28|49=SIMPLE|52=20240519-00:28:32.464|56=CLIENT1|11=28|37=|39=8|41=11=20|58=Order rejected: User exceeded permitted exposure limit.|102=99|434=1|10=221|
20240519-00:28:32.467 : 8=FIX.4.4|9=115|35=3|34=55|49=CLIENT1|52=20240519-00:28:32.465|56=SIMPLE|45=28|58=Tag specified without a value|371=37|372=9|373=4|10=249|
20240519-00:28:33.478 : 8=FIX.4.4|9=134|35=D|34=56|49=CLIENT1|52=20240519-00:28:33.477|56=SIMPLE|11=29|21=1|38=80465|40=1|44=50.7|54=2|55=VALE3|59=0|60=20240518-21:28:33.477|10=123|
20240519-00:28:33.478 : 8=FIX.4.4|9=153|35=9|34=29|49=SIMPLE|52=20240519-00:28:33.478|56=CLIENT1|11=29|37=|39=8|41=11=20|58=Order rejected: User exceeded permitted exposure limit.|102=99|434=1|10=229|
20240519-00:28:33.479 : 8=FIX.4.4|9=115|35=3|34=57|49=CLIENT1|52=20240519-00:28:33.479|56=SIMPLE|45=29|58=Tag specified without a value|371=37|372=9|373=4|10=002|
20240519-00:28:34.494 : 8=FIX.4.4|9=136|35=D|34=58|49=CLIENT1|52=20240519-00:28:34.492|56=SIMPLE|11=30|21=1|38=77330|40=1|44=897.98|54=2|55=VIIA4|59=0|60=20240518-21:28:34.492|10=239|
20240519-00:28:34.496 : 8=FIX.4.4|9=153|35=9|34=30|49=SIMPLE|52=20240519-00:28:34.495|56=CLIENT1|11=30|37=|39=8|41=11=20|58=Order rejected: User exceeded permitted exposure limit.|102=99|434=1|10=213|
20240519-00:28:34.498 : 8=FIX.4.4|9=115|35=3|34=59|49=CLIENT1|52=20240519-00:28:34.497|56=SIMPLE|45=30|58=Tag specified without a value|371=37|372=9|373=4|10=253|
20240519-00:28:35.509 : 8=FIX.4.4|9=136|35=D|34=60|49=CLIENT1|52=20240519-00:28:35.508|56=SIMPLE|11=31|21=1|38=86738|40=1|44=158.69|54=2|55=PETR4|59=0|60=20240518-21:28:35.507|10=248|
20240519-00:28:35.511 : 8=FIX.4.4|9=153|35=9|34=31|49=SIMPLE|52=20240519-00:28:35.510|56=CLIENT1|11=31|37=|39=8|41=11=20|58=Order rejected: User exceeded permitted exposure limit.|102=99|434=1|10=204|
20240519-00:28:35.514 : 8=FIX.4.4|9=115|35=3|34=61|49=CLIENT1|52=20240519-00:28:35.513|56=SIMPLE|45=31|58=Tag specified without a value|371=37|372=9|373=4|10=237|
20240519-00:28:36.522 : 8=FIX.4.4|9=135|35=D|34=62|49=CLIENT1|52=20240519-00:28:36.522|56=SIMPLE|11=32|21=1|38=7302|40=1|44=895.23|54=1|55=PETR4|59=0|60=20240518-21:28:36.521|10=173|
20240519-00:28:36.523 : 8=FIX.4.4|9=153|35=9|34=32|49=SIMPLE|52=20240519-00:28:36.523|56=CLIENT1|11=32|37=|39=8|41=11=20|58=Order rejected: User exceeded permitted exposure limit.|102=99|434=1|10=211|
20240519-00:28:36.524 : 8=FIX.4.4|9=115|35=3|34=63|49=CLIENT1|52=20240519-00:28:36.524|56=SIMPLE|45=32|58=Tag specified without a value|371=37|372=9|373=4|10=243|
20240519-00:28:37.537 : 8=FIX.4.4|9=136|35=D|34=64|49=CLIENT1|52=20240519-00:28:37.537|56=SIMPLE|11=33|21=1|38=78413|40=1|44=435.94|54=2|55=VALE3|59=0|60=20240518-21:28:37.537|10=230|
20240519-00:28:37.538 : 8=FIX.4.4|9=153|35=9|34=33|49=SIMPLE|52=20240519-00:28:37.538|56=CLIENT1|11=33|37=|39=8|41=11=20|58=Order rejected: User exceeded permitted exposure limit.|102=99|434=1|10=220|
20240519-00:28:37.538 : 8=FIX.4.4|9=115|35=3|34=65|49=CLIENT1|52=20240519-00:28:37.538|56=SIMPLE|45=33|58=Tag specified without a value|371=37|372=9|373=4|10=252|
20240519-00:28:38.552 : 8=FIX.4.4|9=135|35=D|34=66|49=CLIENT1|52=20240519-00:28:38.551|56=SIMPLE|11=34|21=1|38=4779|40=1|44=865.86|54=1|55=VIIA4|59=0|60=20240518-21:28:38.551|10=191|
20240519-00:28:38.553 : 8=FIX.4.4|9=153|35=9|34=34|49=SIMPLE|52=20240519-00:28:38.553|56=CLIENT1|11=34|37=|39=8|41=11=20|58=Order rejected: User exceeded permitted exposure limit.|102=99|434=1|10=220|
20240519-00:28:38.555 : 8=FIX.4.4|9=115|35=3|34=67|49=CLIENT1|52=20240519-00:28:38.554|56=SIMPLE|45=34|58=Tag specified without a value|371=37|372=9|373=4|10=254|
20240519-00:28:39.569 : 8=FIX.4.4|9=136|35=D|34=68|49=CLIENT1|52=20240519-00:28:39.567|56=SIMPLE|11=35|21=1|38=76656|40=1|44=699.87|54=1|55=PETR4|59=0|60=20240518-21:28:39.567|10=030|
20240519-00:28:39.570 : 8=FIX.4.4|9=153|35=9|34=35|49=SIMPLE|52=20240519-00:28:39.569|56=CLIENT1|11=35|37=|39=8|41=11=20|58=Order rejected: User exceeded permitted exposure limit.|102=99|434=1|10=230|
20240519-00:28:39.573 : 8=FIX.4.4|9=115|35=3|34=69|49=CLIENT1|52=20240519-00:28:39.572|56=SIMPLE|45=35|58=Tag specified without a value|371=37|372=9|373=4|10=002|
20240519-00:28:40.581 : 8=FIX.4.4|9=136|35=D|34=70|49=CLIENT1|52=20240519-00:28:40.580|56=SIMPLE|11=36|21=1|38=14241|40=1|44=802.24|54=1|55=PETR4|59=0|60=20240518-21:28:40.580|10=213|
20240519-00:28:40.582 : 8=FIX.4.4|9=153|35=9|34=36|49=SIMPLE|52=20240519-00:28:40.582|56=CLIENT1|11=36|37=|39=8|41=11=20|58=Order rejected: User exceeded permitted exposure limit.|102=99|434=1|10=219|
20240519-00:28:40.583 : 8=FIX.4.4|9=115|35=3|34=71|49=CLIENT1|52=20240519-00:28:40.582|56=SIMPLE|45=36|58=Tag specified without a value|371=37|372=9|373=4|10=245|
20240519-00:28:41.582 : 8=FIX.4.4|9=66|35=1|34=72|49=CLIENT1|52=20240519-00:28:41.581|56=SIMPLE|112=TEST|10=225|
20240519-00:28:41.583 : 8=FIX.4.4|9=66|35=0|34=37|49=SIMPLE|52=20240519-00:28:41.583|56=CLIENT1|112=TEST|10=227|
20240519-00:28:41.597 : 8=FIX.4.4|9=136|35=D|34=73|49=CLIENT1|52=20240519-00:28:41.596|56=SIMPLE|11=37|21=1|38=97346|40=1|44=356.48|54=2|55=PETR4|59=0|60=20240518-21:28:41.596|10=005|
20240519-00:28:41.598 : 8=FIX.4.4|9=153|35=9|34=38|49=SIMPLE|52=20240519-00:28:41.598|56=CLIENT1|11=37|37=|39=8|41=11=20|58=Order rejected: User exceeded permitted exposure limit.|102=99|434=1|10=230|
20240519-00:28:41.600 : 8=FIX.4.4|9=115|35=3|34=74|49=CLIENT1|52=20240519-00:28:41.599|56=SIMPLE|45=38|58=Tag specified without a value|371=37|372=9|373=4|10=003|
20240519-00:28:42.611 : 8=FIX.4.4|9=136|35=D|34=75|49=CLIENT1|52=20240519-00:28:42.610|56=SIMPLE|11=38|21=1|38=67697|40=1|44=159.67|54=1|55=PETR4|59=0|60=20240518-21:28:42.610|10=247|
20240519-00:28:42.611 : 8=FIX.4.4|9=153|35=9|34=39|49=SIMPLE|52=20240519-00:28:42.611|56=CLIENT1|11=38|37=|39=8|41=11=20|58=Order rejected: User exceeded permitted exposure limit.|102=99|434=1|10=219|
20240519-00:28:42.612 : 8=FIX.4.4|9=115|35=3|34=76|49=CLIENT1|52=20240519-00:28:42.612|56=SIMPLE|45=39|58=Tag specified without a value|371=37|372=9|373=4|10=249|
20240519-00:28:43.628 : 8=FIX.4.4|9=136|35=D|34=77|49=CLIENT1|52=20240519-00:28:43.626|56=SIMPLE|11=39|21=1|38=12306|40=1|44=328.12|54=1|55=VIIA4|59=0|60=20240518-21:28:43.626|10=213|
20240519-00:28:43.629 : 8=FIX.4.4|9=153|35=9|34=40|49=SIMPLE|52=20240519-00:28:43.628|56=CLIENT1|11=39|37=|39=8|41=11=20|58=Order rejected: User exceeded permitted exposure limit.|102=99|434=1|10=221|
20240519-00:28:43.630 : 8=FIX.4.4|9=115|35=3|34=78|49=CLIENT1|52=20240519-00:28:43.630|56=SIMPLE|45=40|58=Tag specified without a value|371=37|372=9|373=4|10=244|
20240519-00:28:44.642 : 8=FIX.4.4|9=136|35=D|34=79|49=CLIENT1|52=20240519-00:28:44.641|56=SIMPLE|11=40|21=1|38=57232|40=1|44=211.19|54=1|55=VALE3|59=0|60=20240518-21:28:44.641|10=206|
20240519-00:28:44.642 : 8=FIX.4.4|9=153|35=9|34=41|49=SIMPLE|52=20240519-00:28:44.642|56=CLIENT1|11=40|37=|39=8|41=11=20|58=Order rejected: User exceeded permitted exposure limit.|102=99|434=1|10=211|
20240519-00:28:44.643 : 8=FIX.4.4|9=115|35=3|34=80|49=CLIENT1|52=20240519-00:28:44.643|56=SIMPLE|45=41|58=Tag specified without a value|371=37|372=9|373=4|10=243|
20240519-00:28:45.657 : 8=FIX.4.4|9=136|35=D|34=81|49=CLIENT1|52=20240519-00:28:45.656|56=SIMPLE|11=41|21=1|38=87359|40=1|44=712.24|54=2|55=PETR4|59=0|60=20240518-21:28:45.655|10=249|
20240519-00:28:45.658 : 8=FIX.4.4|9=153|35=9|34=42|49=SIMPLE|52=20240519-00:28:45.657|56=CLIENT1|11=41|37=|39=8|41=11=20|58=Order rejected: User exceeded permitted exposure limit.|102=99|434=1|10=220|
20240519-00:28:45.659 : 8=FIX.4.4|9=115|35=3|34=82|49=CLIENT1|52=20240519-00:28:45.659|56=SIMPLE|45=42|58=Tag specified without a value|371=37|372=9|373=4|10=254|
20240519-00:28:46.672 : 8=FIX.4.4|9=136|35=D|34=83|49=CLIENT1|52=20240519-00:28:46.670|56=SIMPLE|11=42|21=1|38=96006|40=1|44=870.25|54=2|55=VALE3|59=0|60=20240518-21:28:46.670|10=222|
20240519-00:28:46.674 : 8=FIX.4.4|9=153|35=9|34=43|49=SIMPLE|52=20240519-00:28:46.673|56=CLIENT1|11=42|37=|39=8|41=11=20|58=Order rejected: User exceeded permitted exposure limit.|102=99|434=1|10=221|
20240519-00:28:46.676 : 8=FIX.4.4|9=115|35=3|34=84|49=CLIENT1|52=20240519-00:28:46.675|56=SIMPLE|45=43|58=Tag specified without a value|371=37|372=9|373=4|10=000|
20240519-00:28:47.687 : 8=FIX.4.4|9=136|35=D|34=85|49=CLIENT1|52=20240519-00:28:47.685|56=SIMPLE|11=43|21=1|38=38988|40=1|44=618.61|54=2|55=PETR4|59=0|60=20240518-21:28:47.685|10=018|
20240519-00:28:47.689 : 8=FIX.4.4|9=153|35=9|34=44|49=SIMPLE|52=20240519-00:28:47.688|56=CLIENT1|11=43|37=|39=8|41=11=20|58=Order rejected: User exceeded permitted exposure limit.|102=99|434=1|10=230|
20240519-00:28:47.691 : 8=FIX.4.4|9=115|35=3|34=86|49=CLIENT1|52=20240519-00:28:47.690|56=SIMPLE|45=44|58=Tag specified without a value|371=37|372=9|373=4|10=001|
20240519-00:28:48.700 : 8=FIX.4.4|9=136|35=D|34=87|49=CLIENT1|52=20240519-00:28:48.700|56=SIMPLE|11=44|21=1|38=63642|40=1|44=453.34|54=1|55=VIIA4|59=0|60=20240518-21:28:48.700|10=218|
20240519-00:28:48.701 : 8=FIX.4.4|9=153|35=9|34=45|49=SIMPLE|52=20240519-00:28:48.701|56=CLIENT1|11=44|37=|39=8|41=11=20|58=Order rejected: User exceeded permitted exposure limit.|102=99|434=1|10=219|
20240519-00:28:48.701 : 8=FIX.4.4|9=115|35=3|34=88|49=CLIENT1|52=20240519-00:28:48.701|56=SIMPLE|45=45|58=Tag specified without a value|371=37|372=9|373=4|10=254|
20240519-00:28:49.716 : 8=FIX.4.4|9=135|35=D|34=89|49=CLIENT1|52=20240519-00:28:49.715|56=SIMPLE|11=45|21=1|38=96792|40=1|44=308.9|54=1|55=PETR4|59=0|60=20240518-21:28:49.715|10=217|
20240519-00:28:49.717 : 8=FIX.4.4|9=153|35=9|34=46|49=SIMPLE|52=20240519-00:28:49.717|56=CLIENT1|11=45|37=|39=8|41=11=20|58=Order rejected: User exceeded permitted exposure limit.|102=99|434=1|10=229|
20240519-00:28:49.719 : 8=FIX.4.4|9=115|35=3|34=90|49=CLIENT1|52=20240519-00:28:49.718|56=SIMPLE|45=46|58=Tag specified without a value|371=37|372=9|373=4|10=001|
20240519-00:28:50.733 : 8=FIX.4.4|9=136|35=D|34=91|49=CLIENT1|52=20240519-00:28:50.731|56=SIMPLE|11=46|21=1|38=12045|40=1|44=797.52|54=2|55=PETR4|59=0|60=20240518-21:28:50.731|10=230|
20240519-00:28:50.735 : 8=FIX.4.4|9=153|35=9|34=47|49=SIMPLE|52=20240519-00:28:50.734|56=CLIENT1|11=46|37=|39=8|41=11=20|58=Order rejected: User exceeded permitted exposure limit.|102=99|434=1|10=222|
20240519-00:28:50.738 : 8=FIX.4.4|9=115|35=3|34=92|49=CLIENT1|52=20240519-00:28:50.737|56=SIMPLE|45=47|58=Tag specified without a value|371=37|372=9|373=4|10=253|
20240519-00:28:51.748 : 8=FIX.4.4|9=131|35=D|34=93|49=CLIENT1|52=20240519-00:28:51.746|56=SIMPLE|11=47|21=1|38=343|40=1|44=137|54=2|55=VIIA4|59=0|60=20240518-21:28:51.746|10=221|
20240519-00:28:51.750 : 8=FIX.4.4|9=108|35=8|34=48|49=SIMPLE|52=20240519-00:28:51.749|56=CLIENT1|6=0|14=343|17=0|37=|39=2|54=2|55=VIIA4|150=2|151=0|10=049|
20240519-00:28:51.752 : 8=FIX.4.4|9=115|35=3|34=94|49=CLIENT1|52=20240519-00:28:51.751|56=SIMPLE|45=48|58=Tag specified without a value|371=37|372=8|373=4|10=252|
20240519-00:28:52.763 : 8=FIX.4.4|9=136|35=D|34=95|49=CLIENT1|52=20240519-00:28:52.762|56=SIMPLE|11=48|21=1|38=27695|40=1|44=231.43|54=2|55=PETR4|59=0|60=20240518-21:28:52.762|10=248|
20240519-00:28:52.764 : 8=FIX.4.4|9=153|35=9|34=49|49=SIMPLE|52=20240519-00:28:52.763|56=CLIENT1|11=48|37=|39=8|41=11=47|58=Order rejected: User exceeded permitted exposure limit.|102=99|434=1|10=239|
20240519-00:28:52.764 : 8=FIX.4.4|9=115|35=3|34=96|49=CLIENT1|52=20240519-00:28:52.764|56=SIMPLE|45=49|58=Tag specified without a value|371=37|372=9|373=4|10=005|
20240519-00:28:53.779 : 8=FIX.4.4|9=136|35=D|34=97|49=CLIENT1|52=20240519-00:28:53.777|56=SIMPLE|11=49|21=1|38=20706|40=1|44=380.29|54=1|55=VIIA4|59=0|60=20240518-21:28:53.777|10=241|
20240519-00:28:53.781 : 8=FIX.4.4|9=153|35=9|34=50|49=SIMPLE|52=20240519-00:28:53.780|56=CLIENT1|11=49|37=|39=8|41=11=47|58=Order rejected: User exceeded permitted exposure limit.|102=99|434=1|10=232|
20240519-00:28:53.783 : 8=FIX.4.4|9=115|35=3|34=98|49=CLIENT1|52=20240519-00:28:53.782|56=SIMPLE|45=50|58=Tag specified without a value|371=37|372=9|373=4|10=000|
20240519-00:28:54.795 : 8=FIX.4.4|9=136|35=D|34=99|49=CLIENT1|52=20240519-00:28:54.793|56=SIMPLE|11=50|21=1|38=97760|40=1|44=430.01|54=2|55=PETR4|59=0|60=20240518-21:28:54.793|10=252|
20240519-00:28:54.797 : 8=FIX.4.4|9=153|35=9|34=51|49=SIMPLE|52=20240519-00:28:54.796|56=CLIENT1|11=50|37=|39=8|41=11=47|58=Order rejected: User exceeded permitted exposure limit.|102=99|434=1|10=233|
20240519-00:28:54.799 : 8=FIX.4.4|9=116|35=3|34=100|49=CLIENT1|52=20240519-00:28:54.798|56=SIMPLE|45=51|58=Tag specified without a value|371=37|372=9|373=4|10=042|
20240519-00:28:55.808 : 8=FIX.4.4|9=137|35=D|34=101|49=CLIENT1|52=20240519-00:28:55.808|56=SIMPLE|11=51|21=1|38=23887|40=1|44=743.84|54=2|55=VALE3|59=0|60=20240518-21:28:55.807|10=022|
20240519-00:28:55.812 : 8=FIX.4.4|9=153|35=9|34=52|49=SIMPLE|52=20240519-00:28:55.812|56=CLIENT1|11=51|37=|39=8|41=11=47|58=Order rejected: User exceeded permitted exposure limit.|102=99|434=1|10=225|
20240519-00:28:55.813 : 8=FIX.4.4|9=116|35=3|34=102|49=CLIENT1|52=20240519-00:28:55.813|56=SIMPLE|45=52|58=Tag specified without a value|371=37|372=9|373=4|10=034|
20240519-00:28:56.809 : 8=FIX.4.4|9=137|35=D|34=103|49=CLIENT1|52=20240519-00:28:56.808|56=SIMPLE|11=52|21=1|38=90973|40=1|44=329.78|54=2|55=PETR4|59=0|60=20240518-21:28:56.808|10=051|
20240519-00:28:56.810 : 8=FIX.4.4|9=153|35=9|34=53|49=SIMPLE|52=20240519-00:28:56.809|56=CLIENT1|11=52|37=|39=8|41=11=47|58=Order rejected: User exceeded permitted exposure limit.|102=99|434=1|10=234|
20240519-00:28:56.811 : 8=FIX.4.4|9=116|35=3|34=104|49=CLIENT1|52=20240519-00:28:56.810|56=SIMPLE|45=53|58=Tag specified without a value|371=37|372=9|373=4|10=035|
20240519-00:28:57.826 : 8=FIX.4.4|9=137|35=D|34=105|49=CLIENT1|52=20240519-00:28:57.824|56=SIMPLE|11=53|21=1|38=32598|40=1|44=214.73|54=1|55=VIIA4|59=0|60=20240518-21:28:57.824|10=020|
20240519-00:28:57.828 : 8=FIX.4.4|9=153|35=9|34=54|49=SIMPLE|52=20240519-00:28:57.827|56=CLIENT1|11=53|37=|39=8|41=11=47|58=Order rejected: User exceeded permitted exposure limit.|102=99|434=1|10=237|
20240519-00:28:57.830 : 8=FIX.4.4|9=116|35=3|34=106|49=CLIENT1|52=20240519-00:28:57.829|56=SIMPLE|45=54|58=Tag specified without a value|371=37|372=9|373=4|10=049|
20240519-00:28:58.839 : 8=FIX.4.4|9=137|35=D|34=107|49=CLIENT1|52=20240519-00:28:58.838|56=SIMPLE|11=54|21=1|38=38885|40=1|44=245.33|54=1|55=VALE3|59=0|60=20240518-21:28:58.838|10=038|
20240519-00:28:58.840 : 8=FIX.4.4|9=153|35=9|34=55|49=SIMPLE|52=20240519-00:28:58.839|56=CLIENT1|11=54|37=|39=8|41=11=47|58=Order rejected: User exceeded permitted exposure limit.|102=99|434=1|10=243|
20240519-00:28:58.841 : 8=FIX.4.4|9=116|35=3|34=108|49=CLIENT1|52=20240519-00:28:58.841|56=SIMPLE|45=55|58=Tag specified without a value|371=37|372=9|373=4|10=047|
20240519-00:28:59.853 : 8=FIX.4.4|9=137|35=D|34=109|49=CLIENT1|52=20240519-00:28:59.852|56=SIMPLE|11=55|21=1|38=55899|40=1|44=489.01|54=1|55=VALE3|59=0|60=20240518-21:28:59.852|10=044|
20240519-00:28:59.854 : 8=FIX.4.4|9=153|35=9|34=56|49=SIMPLE|52=20240519-00:28:59.854|56=CLIENT1|11=55|37=|39=8|41=11=47|58=Order rejected: User exceeded permitted exposure limit.|102=99|434=1|10=243|
20240519-00:28:59.855 : 8=FIX.4.4|9=116|35=3|34=110|49=CLIENT1|52=20240519-00:28:59.854|56=SIMPLE|45=56|58=Tag specified without a value|371=37|372=9|373=4|10=046|
20240519-00:29:00.868 : 8=FIX.4.4|9=137|35=D|34=111|49=CLIENT1|52=20240519-00:29:00.867|56=SIMPLE|11=56|21=1|38=25913|40=1|44=466.45|54=2|55=VALE3|59=0|60=20240518-21:29:00.867|10=012|
20240519-00:29:00.869 : 8=FIX.4.4|9=153|35=9|34=57|49=SIMPLE|52=20240519-00:29:00.868|56=CLIENT1|11=56|37=|39=8|41=11=47|58=Order rejected: User exceeded permitted exposure limit.|102=99|434=1|10=237|
20240519-00:29:00.870 : 8=FIX.4.4|9=116|35=3|34=112|49=CLIENT1|52=20240519-00:29:00.869|56=SIMPLE|45=57|58=Tag specified without a value|371=37|372=9|373=4|10=042|
20240519-00:29:01.883 : 8=FIX.4.4|9=137|35=D|34=113|49=CLIENT1|52=20240519-00:29:01.883|56=SIMPLE|11=57|21=1|38=21703|40=1|44=276.43|54=2|55=VIIA4|59=0|60=20240518-21:29:01.883|10=005|
20240519-00:29:01.884 : 8=FIX.4.4|9=153|35=9|34=58|49=SIMPLE|52=20240519-00:29:01.884|56=CLIENT1|11=57|37=|39=8|41=11=47|58=Order rejected: User exceeded permitted exposure limit.|102=99|434=1|10=238|
20240519-00:29:01.884 : 8=FIX.4.4|9=116|35=3|34=114|49=CLIENT1|52=20240519-00:29:01.884|56=SIMPLE|45=58|58=Tag specified without a value|371=37|372=9|373=4|10=043|
20240519-00:29:02.898 : 8=FIX.4.4|9=137|35=D|34=115|49=CLIENT1|52=20240519-00:29:02.898|56=SIMPLE|11=58|21=1|38=10021|40=1|44=238.75|54=1|55=PETR4|59=0|60=20240518-21:29:02.898|10=033|
20240519-00:29:02.899 : 8=FIX.4.4|9=153|35=9|34=59|49=SIMPLE|52=20240519-00:29:02.899|56=CLIENT1|11=58|37=|39=8|41=11=47|58=Order rejected: User exceeded permitted exposure limit.|102=99|434=1|10=247|
20240519-00:29:02.899 : 8=FIX.4.4|9=116|35=3|34=116|49=CLIENT1|52=20240519-00:29:02.899|56=SIMPLE|45=59|58=Tag specified without a value|371=37|372=9|373=4|10=053|
20240519-00:29:03.914 : 8=FIX.4.4|9=137|35=D|34=117|49=CLIENT1|52=20240519-00:29:03.913|56=SIMPLE|11=59|21=1|38=49582|40=1|44=604.19|54=2|55=PETR4|59=0|60=20240518-21:29:03.913|10=034|
20240519-00:29:03.914 : 8=FIX.4.4|9=153|35=9|34=60|49=SIMPLE|52=20240519-00:29:03.914|56=CLIENT1|11=59|37=|39=8|41=11=47|58=Order rejected: User exceeded permitted exposure limit.|102=99|434=1|10=229|
20240519-00:29:03.915 : 8=FIX.4.4|9=116|35=3|34=118|49=CLIENT1|52=20240519-00:29:03.915|56=SIMPLE|45=60|58=Tag specified without a value|371=37|372=9|373=4|10=037|
20240519-00:29:04.929 : 8=FIX.4.4|9=135|35=D|34=119|49=CLIENT1|52=20240519-00:29:04.928|56=SIMPLE|11=60|21=1|38=8801|40=1|44=858.7|54=2|55=VIIA4|59=0|60=20240518-21:29:04.928|10=179|
20240519-00:29:04.930 : 8=FIX.4.4|9=153|35=9|34=61|49=SIMPLE|52=20240519-00:29:04.929|56=CLIENT1|11=60|37=|39=8|41=11=47|58=Order rejected: User exceeded permitted exposure limit.|102=99|434=1|10=229|
20240519-00:29:04.934 : 8=FIX.4.4|9=116|35=3|34=120|49=CLIENT1|52=20240519-00:29:04.933|56=SIMPLE|45=61|58=Tag specified without a value|371=37|372=9|373=4|10=032|
20240519-00:29:05.945 : 8=FIX.4.4|9=137|35=D|34=121|49=CLIENT1|52=20240519-00:29:05.944|56=SIMPLE|11=61|21=1|38=80531|40=1|44=517.05|54=1|55=PETR4|59=0|60=20240518-21:29:05.944|10=020|
20240519-00:29:05.945 : 8=FIX.4.4|9=153|35=9|34=62|49=SIMPLE|52=20240519-00:29:05.945|56=CLIENT1|11=61|37=|39=8|41=11=47|58=Order rejected: User exceeded permitted exposure limit.|102=99|434=1|10=230|
20240519-00:29:05.946 : 8=FIX.4.4|9=116|35=3|34=122|49=CLIENT1|52=20240519-00:29:05.946|56=SIMPLE|45=62|58=Tag specified without a value|371=37|372=9|373=4|10=040|
20240519-00:29:06.959 : 8=FIX.4.4|9=137|35=D|34=123|49=CLIENT1|52=20240519-00:29:06.959|56=SIMPLE|11=62|21=1|38=51428|40=1|44=530.47|54=1|55=VIIA4|59=0|60=20240518-21:29:06.959|10=023|
20240519-00:29:06.960 : 8=FIX.4.4|9=153|35=9|34=63|49=SIMPLE|52=20240519-00:29:06.959|56=CLIENT1|11=62|37=|39=8|41=11=47|58=Order rejected: User exceeded permitted exposure limit.|102=99|434=1|10=238|
20240519-00:29:06.960 : 8=FIX.4.4|9=116|35=3|34=124|49=CLIENT1|52=20240519-00:29:06.960|56=SIMPLE|45=63|58=Tag specified without a value|371=37|372=9|373=4|10=040|
20240519-00:29:07.975 : 8=FIX.4.4|9=136|35=D|34=125|49=CLIENT1|52=20240519-00:29:07.974|56=SIMPLE|11=63|21=1|38=57212|40=1|44=740.1|54=1|55=VALE3|59=0|60=20240518-21:29:07.974|10=217|
20240519-00:29:07.975 : 8=FIX.4.4|9=153|35=9|34=64|49=SIMPLE|52=20240519-00:29:07.975|56=CLIENT1|11=63|37=|39=8|41=11=47|58=Order rejected: User exceeded permitted exposure limit.|102=99|434=1|10=239|
20240519-00:29:07.975 : 8=FIX.4.4|9=116|35=3|34=126|49=CLIENT1|52=20240519-00:29:07.975|56=SIMPLE|45=64|58=Tag specified without a value|371=37|372=9|373=4|10=050|
20240519-00:29:08.989 : 8=FIX.4.4|9=137|35=D|34=127|49=CLIENT1|52=20240519-00:29:08.989|56=SIMPLE|11=64|21=1|38=84521|40=1|44=526.11|54=1|55=VALE3|59=0|60=20240518-21:29:08.989|10=033|
20240519-00:29:08.990 : 8=FIX.4.4|9=153|35=9|34=65|49=SIMPLE|52=20240519-00:29:08.989|56=CLIENT1|11=64|37=|39=8|41=11=47|58=Order rejected: User exceeded permitted exposure limit.|102=99|434=1|10=247|
20240519-00:29:08.990 : 8=FIX.4.4|9=116|35=3|34=128|49=CLIENT1|52=20240519-00:29:08.990|56=SIMPLE|45=65|58=Tag specified without a value|371=37|372=9|373=4|10=051|
20240519-00:29:10.005 : 8=FIX.4.4|9=136|35=D|34=129|49=CLIENT1|52=20240519-00:29:10.005|56=SIMPLE|11=65|21=1|38=2153|40=1|44=609.71|54=1|55=VALE3|59=0|60=20240518-21:29:10.005|10=186|
20240519-00:29:10.006 : 8=FIX.4.4|9=153|35=9|34=66|49=SIMPLE|52=20240519-00:29:10.005|56=CLIENT1|11=65|37=|39=8|41=11=47|58=Order rejected: User exceeded permitted exposure limit.|102=99|434=1|10=221|
20240519-00:29:10.006 : 8=FIX.4.4|9=116|35=3|34=130|49=CLIENT1|52=20240519-00:29:10.006|56=SIMPLE|45=66|58=Tag specified without a value|371=37|372=9|373=4|10=026|
20240519-00:29:11.020 : 8=FIX.4.4|9=137|35=D|34=131|49=CLIENT1|52=20240519-00:29:11.020|56=SIMPLE|11=66|21=1|38=70532|40=1|44=278.61|54=1|55=VIIA4|59=0|60=20240518-21:29:11.020|10=234|
20240519-00:29:11.021 : 8=FIX.4.4|9=153|35=9|34=67|49=SIMPLE|52=20240519-00:29:11.021|56=CLIENT1|11=66|37=|39=8|41=11=47|58=Order rejected: User exceeded permitted exposure limit.|102=99|434=1|10=222|
20240519-00:29:11.021 : 8=FIX.4.4|9=116|35=3|34=132|49=CLIENT1|52=20240519-00:29:11.021|56=SIMPLE|45=67|58=Tag specified without a value|371=37|372=9|373=4|10=027|
20240519-00:33:10.299 : 8=FIX.4.4|9=74|35=A|34=1|49=CLIENT1|52=20240519-00:33:10.258|56=SIMPLE|98=0|108=30|141=Y|10=229|
20240519-00:33:10.325 : 8=FIX.4.4|9=68|35=A|34=1|49=SIMPLE|52=20240519-00:33:10.324|56=CLIENT1|98=0|108=30|10=181|
20240519-00:33:11.260 : 8=FIX.4.4|9=134|35=D|34=2|49=CLIENT1|52=20240519-00:33:11.260|56=SIMPLE|11=2|21=1|38=41106|40=1|44=407.38|54=2|55=PETR4|59=0|60=20240518-21:33:11.260|10=088|
20240519-00:33:11.265 : 8=FIX.4.4|9=150|35=9|34=2|49=SIMPLE|52=20240519-00:33:11.265|56=CLIENT1|11=2|37=2|39=8|41=11=|58=Order rejected: User exceeded permitted exposure limit.|102=99|434=1|10=050|
20240519-00:33:12.276 : 8=FIX.4.4|9=131|35=D|34=3|49=CLIENT1|52=20240519-00:33:12.275|56=SIMPLE|11=3|21=1|38=72688|40=1|44=507|54=2|55=VIIA4|59=0|60=20240518-21:33:12.275|10=206|
20240519-00:33:12.276 : 8=FIX.4.4|9=150|35=9|34=3|49=SIMPLE|52=20240519-00:33:12.276|56=CLIENT1|11=3|37=3|39=8|41=11=|58=Order rejected: User exceeded permitted exposure limit.|102=99|434=1|10=056|
20240519-00:33:13.292 : 8=FIX.4.4|9=134|35=D|34=4|49=CLIENT1|52=20240519-00:33:13.291|56=SIMPLE|11=4|21=1|38=41012|40=1|44=256.96|54=2|55=VIIA4|59=0|60=20240518-21:33:13.291|10=088|
20240519-00:33:13.292 : 8=FIX.4.4|9=150|35=9|34=4|49=SIMPLE|52=20240519-00:33:13.292|56=CLIENT1|11=4|37=4|39=8|41=11=|58=Order rejected: User exceeded permitted exposure limit.|102=99|434=1|10=058|
20240519-00:33:14.307 : 8=FIX.4.4|9=134|35=D|34=5|49=CLIENT1|52=20240519-00:33:14.306|56=SIMPLE|11=5|21=1|38=47522|40=1|44=978.63|54=1|55=PETR4|59=0|60=20240518-21:33:14.306|10=120|
20240519-00:33:14.308 : 8=FIX.4.4|9=150|35=9|34=5|49=SIMPLE|52=20240519-00:33:14.308|56=CLIENT1|11=5|37=5|39=8|41=11=|58=Order rejected: User exceeded permitted exposure limit.|102=99|434=1|10=060|
20240519-00:33:15.322 : 8=FIX.4.4|9=134|35=D|34=6|49=CLIENT1|52=20240519-00:33:15.322|56=SIMPLE|11=6|21=1|38=72383|40=1|44=153.32|54=1|55=VALE3|59=0|60=20240518-21:33:15.321|10=083|
20240519-00:33:15.323 : 8=FIX.4.4|9=150|35=9|34=6|49=SIMPLE|52=20240519-00:33:15.323|56=CLIENT1|11=6|37=6|39=8|41=11=|58=Order rejected: User exceeded permitted exposure limit.|102=99|434=1|10=061|
20240519-00:33:16.338 : 8=FIX.4.4|9=133|35=D|34=7|49=CLIENT1|52=20240519-00:33:16.337|56=SIMPLE|11=7|21=1|38=63509|40=1|44=11.81|54=1|55=PETR4|59=0|60=20240518-21:33:16.337|10=068|
20240519-00:33:16.341 : 8=FIX.4.4|9=109|35=8|34=7|49=SIMPLE|52=20240519-00:33:16.340|56=CLIENT1|6=0|14=63509|17=0|37=|39=2|54=1|55=PETR4|150=2|151=0|10=107|
20240519-00:33:16.344 : 8=FIX.4.4|9=113|35=3|34=8|49=CLIENT1|52=20240519-00:33:16.343|56=SIMPLE|45=7|58=Tag specified without a value|371=37|372=8|373=4|10=138|
20240519-00:33:17.354 : 8=FIX.4.4|9=134|35=D|34=9|49=CLIENT1|52=20240519-00:33:17.353|56=SIMPLE|11=8|21=1|38=73600|40=1|44=754.05|54=2|55=VIIA4|59=0|60=20240518-21:33:17.353|10=104|
20240519-00:33:17.355 : 8=FIX.4.4|9=151|35=9|34=8|49=SIMPLE|52=20240519-00:33:17.355|56=CLIENT1|11=8|37=8|39=8|41=11=7|58=Order rejected: User exceeded permitted exposure limit.|102=99|434=1|10=130|
20240519-00:33:18.369 : 8=FIX.4.4|9=135|35=D|34=10|49=CLIENT1|52=20240519-00:33:18.369|56=SIMPLE|11=9|21=1|38=48547|40=1|44=547.41|54=1|55=VIIA4|59=0|60=20240518-21:33:18.369|10=173|
20240519-00:33:18.370 : 8=FIX.4.4|9=151|35=9|34=9|49=SIMPLE|52=20240519-00:33:18.370|56=CLIENT1|11=9|37=9|39=8|41=11=7|58=Order rejected: User exceeded permitted exposure limit.|102=99|434=1|10=131|
20240519-00:33:19.385 : 8=FIX.4.4|9=136|35=D|34=11|49=CLIENT1|52=20240519-00:33:19.384|56=SIMPLE|11=10|21=1|38=27803|40=1|44=810.34|54=1|55=PETR4|59=0|60=20240518-21:33:19.384|10=216|
20240519-00:33:19.385 : 8=FIX.4.4|9=154|35=9|34=10|49=SIMPLE|52=20240519-00:33:19.385|56=CLIENT1|11=10|37=10|39=8|41=11=7|58=Order rejected: User exceeded permitted exposure limit.|102=99|434=1|10=005|
20240519-00:33:20.400 : 8=FIX.4.4|9=136|35=D|34=12|49=CLIENT1|52=20240519-00:33:20.400|56=SIMPLE|11=11|21=1|38=26529|40=1|44=169.51|54=2|55=VALE3|59=0|60=20240518-21:33:20.400|10=171|
20240519-00:33:20.401 : 8=FIX.4.4|9=154|35=9|34=11|49=SIMPLE|52=20240519-00:33:20.401|56=CLIENT1|11=11|37=11|39=8|41=11=7|58=Order rejected: User exceeded permitted exposure limit.|102=99|434=1|10=245|
20240519-00:33:21.415 : 8=FIX.4.4|9=136|35=D|34=13|49=CLIENT1|52=20240519-00:33:21.414|56=SIMPLE|11=12|21=1|38=42642|40=1|44=570.58|54=2|55=PETR4|59=0|60=20240518-21:33:21.414|10=202|
20240519-00:33:21.416 : 8=FIX.4.4|9=154|35=9|34=12|49=SIMPLE|52=20240519-00:33:21.416|56=CLIENT1|11=12|37=12|39=8|41=11=7|58=Order rejected: User exceeded permitted exposure limit.|102=99|434=1|10=255|
20240519-00:33:22.433 : 8=FIX.4.4|9=136|35=D|34=14|49=CLIENT1|52=20240519-00:33:22.430|56=SIMPLE|11=13|21=1|38=75173|40=1|44=110.56|54=1|55=VALE3|59=0|60=20240518-21:33:22.430|10=174|
20240519-00:33:22.434 : 8=FIX.4.4|9=154|35=9|34=13|49=SIMPLE|52=20240519-00:33:22.434|56=CLIENT1|11=13|37=13|39=8|41=11=7|58=Order rejected: User exceeded permitted exposure limit.|102=99|434=1|10=003|
20240519-00:33:23.447 : 8=FIX.4.4|9=136|35=D|34=15|49=CLIENT1|52=20240519-00:33:23.445|56=SIMPLE|11=14|21=1|38=96430|40=1|44=418.16|54=2|55=VALE3|59=0|60=20240518-21:33:23.445|10=197|
20240519-00:33:23.448 : 8=FIX.4.4|9=154|35=9|34=14|49=SIMPLE|52=20240519-00:33:23.448|56=CLIENT1|11=14|37=14|39=8|41=11=7|58=Order rejected: User exceeded permitted exposure limit.|102=99|434=1|10=012|
20240519-00:33:24.462 : 8=FIX.4.4|9=135|35=D|34=16|49=CLIENT1|52=20240519-00:33:24.460|56=SIMPLE|11=15|21=1|38=29792|40=1|44=70.98|54=2|55=VALE3|59=0|60=20240518-21:33:24.460|10=157|
20240519-00:33:24.463 : 8=FIX.4.4|9=154|35=9|34=15|49=SIMPLE|52=20240519-00:33:24.462|56=CLIENT1|11=15|37=15|39=8|41=11=7|58=Order rejected: User exceeded permitted exposure limit.|102=99|434=1|10=012|
20240519-00:33:25.476 : 8=FIX.4.4|9=133|35=D|34=17|49=CLIENT1|52=20240519-00:33:25.475|56=SIMPLE|11=16|21=1|38=75539|40=1|44=471|54=1|55=VALE3|59=0|60=20240518-21:33:25.475|10=064|
20240519-00:33:25.477 : 8=FIX.4.4|9=154|35=9|34=16|49=SIMPLE|52=20240519-00:33:25.476|56=CLIENT1|11=16|37=16|39=8|41=11=7|58=Order rejected: User exceeded permitted exposure limit.|102=99|434=1|10=021|
20240519-00:33:26.493 : 8=FIX.4.4|9=136|35=D|34=18|49=CLIENT1|52=20240519-00:33:26.491|56=SIMPLE|11=17|21=1|38=48477|40=1|44=455.36|54=1|55=VALE3|59=0|60=20240518-21:33:26.491|10=221|
20240519-00:33:26.494 : 8=FIX.4.4|9=154|35=9|34=17|49=SIMPLE|52=20240519-00:33:26.493|56=CLIENT1|11=17|37=17|39=8|41=11=7|58=Order rejected: User exceeded permitted exposure limit.|102=99|434=1|10=024|
20240519-00:33:27.508 : 8=FIX.4.4|9=136|35=D|34=19|49=CLIENT1|52=20240519-00:33:27.507|56=SIMPLE|11=18|21=1|38=94415|40=1|44=710.53|54=2|55=PETR4|59=0|60=20240518-21:33:27.507|10=228|
20240519-00:33:27.508 : 8=FIX.4.4|9=154|35=9|34=18|49=SIMPLE|52=20240519-00:33:27.508|56=CLIENT1|11=18|37=18|39=8|41=11=7|58=Order rejected: User exceeded permitted exposure limit.|102=99|434=1|10=025|
20240519-00:33:28.524 : 8=FIX.4.4|9=136|35=D|34=20|49=CLIENT1|52=20240519-00:33:28.522|56=SIMPLE|11=19|21=1|38=63036|40=1|44=588.72|54=1|55=VIIA4|59=0|60=20240518-21:33:28.522|10=207|
20240519-00:33:28.525 : 8=FIX.4.4|9=154|35=9|34=19|49=SIMPLE|52=20240519-00:33:28.524|56=CLIENT1|11=19|37=19|39=8|41=11=7|58=Order rejected: User exceeded permitted exposure limit.|102=99|434=1|10=027|
20240519-00:33:29.540 : 8=FIX.4.4|9=136|35=D|34=21|49=CLIENT1|52=20240519-00:33:29.538|56=SIMPLE|11=20|21=1|38=64216|40=1|44=148.51|54=2|55=PETR4|59=0|60=20240518-21:33:29.538|10=225|
20240519-00:33:29.542 : 8=FIX.4.4|9=154|35=9|34=20|49=SIMPLE|52=20240519-00:33:29.542|56=CLIENT1|11=20|37=20|39=8|41=11=7|58=Order rejected: User exceeded permitted exposure limit.|102=99|434=1|10=004|
20240519-00:33:30.555 : 8=FIX.4.4|9=136|35=D|34=22|49=CLIENT1|52=20240519-00:33:30.553|56=SIMPLE|11=21|21=1|38=81269|40=1|44=140.73|54=2|55=VALE3|59=0|60=20240518-21:33:30.553|10=188|
20240519-00:33:30.556 : 8=FIX.4.4|9=154|35=9|34=21|49=SIMPLE|52=20240519-00:33:30.556|56=CLIENT1|11=21|37=21|39=8|41=11=7|58=Order rejected: User exceeded permitted exposure limit.|102=99|434=1|10=004|
20240519-00:33:31.569 : 8=FIX.4.4|9=136|35=D|34=23|49=CLIENT1|52=20240519-00:33:31.569|56=SIMPLE|11=22|21=1|38=31840|40=1|44=645.25|54=1|55=VIIA4|59=0|60=20240518-21:33:31.569|10=204|
20240519-00:33:31.570 : 8=FIX.4.4|9=154|35=9|34=22|49=SIMPLE|52=20240519-00:33:31.570|56=CLIENT1|11=22|37=22|39=8|41=11=7|58=Order rejected: User exceeded permitted exposure limit.|102=99|434=1|10=004|
