20240518-22:40:02.684 : 8=FIXT.1.1|9=81|35=A|34=1|49=CLIENT1|52=20240518-22:40:02.653|56=SIMPLE|98=0|108=30|141=Y|1137=7|10=115|
20240518-22:40:02.708 : 8=FIXT.1.1|9=75|35=A|34=1|49=SIMPLE|52=20240518-22:40:02.706|56=CLIENT1|98=0|108=30|1137=7|10=072|
20240518-22:40:03.666 : 8=FIXT.1.1|9=124|35=D|34=2|49=CLIENT1|52=20240518-22:40:03.665|56=SIMPLE|11=2|38=63292|40=1|44=857.23|54=1|55=PETR4|60=20240518-19:40:03.665|10=029|
20240518-22:40:03.670 : 8=FIXT.1.1|9=101|35=j|34=2|49=SIMPLE|52=20240518-22:40:03.670|56=CLIENT1|45=2|58=Unsupported Message Type|372=D|380=3|10=061|
20240518-22:40:04.683 : 8=FIXT.1.1|9=124|35=D|34=3|49=CLIENT1|52=20240518-22:40:04.681|56=SIMPLE|11=3|38=95716|40=1|44=173.47|54=2|55=VIIA4|60=20240518-19:40:04.681|10=015|
20240518-22:40:04.686 : 8=FIXT.1.1|9=101|35=j|34=3|49=SIMPLE|52=20240518-22:40:04.686|56=CLIENT1|45=3|58=Unsupported Message Type|372=D|380=3|10=071|
20240518-22:40:05.699 : 8=FIXT.1.1|9=122|35=D|34=4|49=CLIENT1|52=20240518-22:40:05.697|56=SIMPLE|11=4|38=16928|40=1|44=20.5|54=1|55=PETR4|60=20240518-19:40:05.697|10=191|
20240518-22:40:05.702 : 8=FIXT.1.1|9=101|35=j|34=4|49=SIMPLE|52=20240518-22:40:05.701|56=CLIENT1|45=4|58=Unsupported Message Type|372=D|380=3|10=062|
20240518-22:40:06.714 : 8=FIXT.1.1|9=124|35=D|34=5|49=CLIENT1|52=20240518-22:40:06.713|56=SIMPLE|11=5|38=66354|40=1|44=693.48|54=2|55=PETR4|60=20240518-19:40:06.712|10=036|
20240518-22:40:06.716 : 8=FIXT.1.1|9=101|35=j|34=5|49=SIMPLE|52=20240518-22:40:06.715|56=CLIENT1|45=5|58=Unsupported Message Type|372=D|380=3|10=070|
20240518-22:40:07.730 : 8=FIXT.1.1|9=124|35=D|34=6|49=CLIENT1|52=20240518-22:40:07.729|56=SIMPLE|11=6|38=69020|40=1|44=326.14|54=2|55=PETR4|60=20240518-19:40:07.729|10=034|
20240518-22:40:07.733 : 8=FIXT.1.1|9=101|35=j|34=6|49=SIMPLE|52=20240518-22:40:07.732|56=CLIENT1|45=6|58=Unsupported Message Type|372=D|380=3|10=072|
20240518-22:40:08.745 : 8=FIXT.1.1|9=124|35=D|34=7|49=CLIENT1|52=20240518-22:40:08.744|56=SIMPLE|11=7|38=29773|40=1|44=794.82|54=1|55=VALE3|60=20240518-19:40:08.744|10=036|
20240518-22:40:08.746 : 8=FIXT.1.1|9=101|35=j|34=7|49=SIMPLE|52=20240518-22:40:08.746|56=CLIENT1|45=7|58=Unsupported Message Type|372=D|380=3|10=080|
20240518-22:40:09.761 : 8=FIXT.1.1|9=124|35=D|34=8|49=CLIENT1|52=20240518-22:40:09.760|56=SIMPLE|11=8|38=41561|40=1|44=649.95|54=2|55=VIIA4|60=20240518-19:40:09.760|10=031|
20240518-22:40:09.762 : 8=FIXT.1.1|9=101|35=j|34=8|49=SIMPLE|52=20240518-22:40:09.762|56=CLIENT1|45=8|58=Unsupported Message Type|372=D|380=3|10=081|
20240518-22:40:10.777 : 8=FIXT.1.1|9=124|35=D|34=9|49=CLIENT1|52=20240518-22:40:10.776|56=SIMPLE|11=9|38=87911|40=1|44=852.48|54=2|55=VALE3|60=20240518-19:40:10.776|10=032|
20240518-22:40:10.779 : 8=FIXT.1.1|9=101|35=j|34=9|49=SIMPLE|52=20240518-22:40:10.778|56=CLIENT1|45=9|58=Unsupported Message Type|372=D|380=3|10=082|
20240518-22:40:11.793 : 8=FIXT.1.1|9=126|35=D|34=10|49=CLIENT1|52=20240518-22:40:11.791|56=SIMPLE|11=10|38=26480|40=1|44=252.96|54=2|55=VIIA4|60=20240518-19:40:11.791|10=103|
20240518-22:40:11.794 : 8=FIXT.1.1|9=103|35=j|34=10|49=SIMPLE|52=20240518-22:40:11.794|56=CLIENT1|45=10|58=Unsupported Message Type|372=D|380=3|10=163|
20240518-22:40:12.810 : 8=FIXT.1.1|9=126|35=D|34=11|49=CLIENT1|52=20240518-22:40:12.808|56=SIMPLE|11=11|38=80728|40=1|44=815.89|54=1|55=VIIA4|60=20240518-19:40:12.808|10=116|
20240518-22:40:12.812 : 8=FIXT.1.1|9=103|35=j|34=11|49=SIMPLE|52=20240518-22:40:12.811|56=CLIENT1|45=11|58=Unsupported Message Type|372=D|380=3|10=156|
20240518-23:19:04.249 : 8=FIXT.1.1|9=81|35=A|34=1|49=CLIENT1|52=20240518-23:19:04.220|56=SIMPLE|98=0|108=30|141=Y|1137=7|10=114|
20240518-23:19:04.273 : 8=FIXT.1.1|9=75|35=A|34=1|49=SIMPLE|52=20240518-23:19:04.271|56=CLIENT1|98=0|108=30|1137=7|10=078|
20240518-23:19:05.227 : 8=FIXT.1.1|9=134|35=D|34=2|49=CLIENT1|52=20240518-23:19:05.224|56=SIMPLE|11=2|21=1|38=74236|40=1|44=105.51|54=2|55=PETR4|59=0|60=20240518-20:19:05.224|10=183|
20240518-23:19:05.241 : 8=FIXT.1.1|9=101|35=j|34=2|49=SIMPLE|52=20240518-23:19:05.240|56=CLIENT1|45=2|58=Unsupported Message Type|372=D|380=3|10=063|
20240518-23:19:06.240 : 8=FIXT.1.1|9=134|35=D|34=3|49=CLIENT1|52=20240518-23:19:06.239|56=SIMPLE|11=3|21=1|38=25704|40=1|44=514.91|54=2|55=VIIA4|59=0|60=20240518-20:19:06.239|10=185|
20240518-23:19:06.240 : 8=FIXT.1.1|9=101|35=j|34=3|49=SIMPLE|52=20240518-23:19:06.240|56=CLIENT1|45=3|58=Unsupported Message Type|372=D|380=3|10=066|
20240518-23:19:07.256 : 8=FIXT.1.1|9=134|35=D|34=4|49=CLIENT1|52=20240518-23:19:07.254|56=SIMPLE|11=4|21=1|38=91983|40=1|44=134.82|54=1|55=VIIA4|59=0|60=20240518-20:19:07.254|10=192|
20240518-23:19:07.257 : 8=FIXT.1.1|9=101|35=j|34=4|49=SIMPLE|52=20240518-23:19:07.257|56=CLIENT1|45=4|58=Unsupported Message Type|372=D|380=3|10=077|
20240518-23:19:08.272 : 8=FIXT.1.1|9=134|35=D|34=5|49=CLIENT1|52=20240518-23:19:08.270|56=SIMPLE|11=5|21=1|38=65023|40=1|44=985.21|54=1|55=PETR4|59=0|60=20240518-20:19:08.270|10=203|
20240518-23:19:08.273 : 8=FIXT.1.1|9=101|35=j|34=5|49=SIMPLE|52=20240518-23:19:08.273|56=CLIENT1|45=5|58=Unsupported Message Type|372=D|380=3|10=078|
