8=FIX.4.4|9=135|35=D|34=1|49=CLIENT1|52=20240519-00:33:32.584|56=SIMPLE|11=23|21=1|38=98539|40=1|44=476.73|54=2|55=VIIA4|59=0|60=20240518-21:33:32.584|10=172|8=FIX.4.4|9=135|35=D|34=2|49=CLIENT1|52=20240519-00:33:33.600|56=SIMPLE|11=24|21=1|38=45592|40=1|44=352.67|54=1|55=VIIA4|59=0|60=20240518-21:33:33.600|10=140|