8=FIXT.1.1|9=81|35=A|34=1|49=CLIENT1|52=20240518-23:19:04.220|56=SIMPLE|98=0|108=30|141=Y|1137=7|10=114|8=FIXT.1.1|9=134|35=D|34=2|49=CLIENT1|52=20240518-23:19:05.224|56=SIMPLE|11=2|21=1|38=74236|40=1|44=105.51|54=2|55=PETR4|59=0|60=20240518-20:19:05.224|10=183|8=FIXT.1.1|9=134|35=D|34=3|49=CLIENT1|52=20240518-23:19:06.239|56=SIMPLE|11=3|21=1|38=25704|40=1|44=514.91|54=2|55=VIIA4|59=0|60=20240518-20:19:06.239|10=185|8=FIXT.1.1|9=134|35=D|34=4|49=CLIENT1|52=20240518-23:19:07.254|56=SIMPLE|11=4|21=1|38=91983|40=1|44=134.82|54=1|55=VIIA4|59=0|60=20240518-20:19:07.254|10=192|8=FIXT.1.1|9=134|35=D|34=5|49=CLIENT1|52=20240518-23:19:08.270|56=SIMPLE|11=5|21=1|38=65023|40=1|44=985.21|54=1|55=PETR4|59=0|60=20240518-20:19:08.270|10=203|