8=FIX.4.4|9=68|35=A|34=1|49=SIMPLE|52=20240519-00:33:10.324|56=CLIENT1|98=0|108=30|10=181|8=FIX.4.4|9=150|35=9|34=2|49=SIMPLE|52=20240519-00:33:11.265|56=CLIENT1|11=2|37=2|39=8|41=11=|58=Order rejected: User exceeded permitted exposure limit.|102=99|434=1|10=050|8=FIX.4.4|9=150|35=9|34=3|49=SIMPLE|52=20240519-00:33:12.276|56=CLIENT1|11=3|37=3|39=8|41=11=|58=Order rejected: User exceeded permitted exposure limit.|102=99|434=1|10=056|8=FIX.4.4|9=150|35=9|34=4|49=SIMPLE|52=20240519-00:33:13.292|56=CLIENT1|11=4|37=4|39=8|41=11=|58=Order rejected: User exceeded permitted exposure limit.|102=99|434=1|10=058|8=FIX.4.4|9=150|35=9|34=5|49=SIMPLE|52=20240519-00:33:14.308|56=CLIENT1|11=5|37=5|39=8|41=11=|58=Order rejected: User exceeded permitted exposure limit.|102=99|434=1|10=060|8=FIX.4.4|9=150|35=9|34=6|49=SIMPLE|52=20240519-00:33:15.323|56=CLIENT1|11=6|37=6|39=8|41=11=|58=Order rejected: User exceeded permitted exposure limit.|102=99|434=1|10=061|8=FIX.4.4|9=109|35=8|34=7|49=SIMPLE|52=20240519-00:33:16.340|56=CLIENT1|6=0|14=63509|17=0|37=|39=2|54=1|55=PETR4|150=2|151=0|10=107|8=FIX.4.4|9=151|35=9|34=8|49=SIMPLE|52=20240519-00:33:17.355|56=CLIENT1|11=8|37=8|39=8|41=11=7|58=Order rejected: User exceeded permitted exposure limit.|102=99|434=1|10=130|8=FIX.4.4|9=151|35=9|34=9|49=SIMPLE|52=20240519-00:33:18.370|56=CLIENT1|11=9|37=9|39=8|41=11=7|58=Order rejected: User exceeded permitted exposure limit.|102=99|434=1|10=131|8=FIX.4.4|9=154|35=9|34=10|49=SIMPLE|52=20240519-00:33:19.385|56=CLIENT1|11=10|37=10|39=8|41=11=7|58=Order rejected: User exceeded permitted exposure limit.|102=99|434=1|10=005|8=FIX.4.4|9=154|35=9|34=11|49=SIMPLE|52=20240519-00:33:20.401|56=CLIENT1|11=11|37=11|39=8|41=11=7|58=Order rejected: User exceeded permitted exposure limit.|102=99|434=1|10=245|8=FIX.4.4|9=154|35=9|34=12|49=SIMPLE|52=20240519-00:33:21.416|56=CLIENT1|11=12|37=12|39=8|41=11=7|58=Order rejected: User exceeded permitted exposure limit.|102=99|434=1|10=255|8=FIX.4.4|9=154|35=9|34=13|49=SIMPLE|52=20240519-00:33:22.434|56=CLIENT1|11=13|37=13|39=8|41=11=7|58=Order rejected: User exceeded permitted exposure limit.|102=99|434=1|10=003|8=FIX.4.4|9=154|35=9|34=14|49=SIMPLE|52=20240519-00:33:23.448|56=CLIENT1|11=14|37=14|39=8|41=11=7|58=Order rejected: User exceeded permitted exposure limit.|102=99|434=1|10=012|8=FIX.4.4|9=154|35=9|34=15|49=SIMPLE|52=20240519-00:33:24.462|56=CLIENT1|11=15|37=15|39=8|41=11=7|58=Order rejected: User exceeded permitted exposure limit.|102=99|434=1|10=012|8=FIX.4.4|9=154|35=9|34=16|49=SIMPLE|52=20240519-00:33:25.476|56=CLIENT1|11=16|37=16|39=8|41=11=7|58=Order rejected: User exceeded permitted exposure limit.|102=99|434=1|10=021|8=FIX.4.4|9=154|35=9|34=17|49=SIMPLE|52=20240519-00:33:26.493|56=CLIENT1|11=17|37=17|39=8|41=11=7|58=Order rejected: User exceeded permitted exposure limit.|102=99|434=1|10=024|8=FIX.4.4|9=154|35=9|34=18|49=SIMPLE|52=20240519-00:33:27.508|56=CLIENT1|11=18|37=18|39=8|41=11=7|58=Order rejected: User exceeded permitted exposure limit.|102=99|434=1|10=025|8=FIX.4.4|9=154|35=9|34=19|49=SIMPLE|52=20240519-00:33:28.524|56=CLIENT1|11=19|37=19|39=8|41=11=7|58=Order rejected: User exceeded permitted exposure limit.|102=99|434=1|10=027|8=FIX.4.4|9=154|35=9|34=20|49=SIMPLE|52=20240519-00:33:29.542|56=CLIENT1|11=20|37=20|39=8|41=11=7|58=Order rejected: User exceeded permitted exposure limit.|102=99|434=1|10=004|8=FIX.4.4|9=154|35=9|34=21|49=SIMPLE|52=20240519-00:33:30.556|56=CLIENT1|11=21|37=21|39=8|41=11=7|58=Order rejected: User exceeded permitted exposure limit.|102=99|434=1|10=004|8=FIX.4.4|9=154|35=9|34=22|49=SIMPLE|52=20240519-00:33:31.570|56=CLIENT1|11=22|37=22|39=8|41=11=7|58=Order rejected: User exceeded permitted exposure limit.|102=99|434=1|10=004|